:100000000C9462000C9408050C94E1040C948A0092
:100010000C948A000C948A000C948A000C948A0038
:100020000C948A000C948A000C948A000C948A0028
:100030000C948A000C948A000C948A000C948A0018
:100040000C9497040C948A000C9455050C942F057D
:100050000C948A000C948A000C948A000C948A00F8
:100060000C948A000C948A000000000024002700F1
:100070002A0000000000250028002B0000000000DE
:1000800023002600290004040404040404040202DA
:100090000202020203030303030301020408102007
:1000A0004080010204081020010204081020000012
:1000B0000008000201000003040700000000000027
:1000C0000000B20711241FBECFEFD8E0DEBFCDBFC6
:1000D00013E0A0E0B1E0EAE3F2E102C005900D9286
:1000E000A030B107D9F723E0A0E0B3E001C01D9232
:1000F000A73FB207E1F710E0C2E6D0E004C02197C5
:10010000FE010E940E09C136D107C9F70E9487057A
:100110000C941B090C9400008230C8F4E82FF0E026
:10012000EE0FFF1FEC59FD4F71836083813041F06A
:10013000809169008C7F826080936900E89A0895BD
:1001400080916900837F886080936900E99A0895AF
:10015000833081F028F4813099F08230A9F008953D
:100160008730A9F08830C9F08430B1F480918000E4
:100170008F7D03C0809180008F77809380000895E9
:1001800084B58F7784BD089584B58F7DFBCF809132
:10019000B0008F778093B00008958091B0008F7D7C
:1001A000F9CFCF93DF93282F30E0F901E255FF4FCD
:1001B0008491F901E656FF4FD491F901EA57FF4FB8
:1001C000C491CC23A1F081110E94A800EC2FF0E093
:1001D000EE0FFF1FE458FF4FA591B491EC91ED2372
:1001E00081E090E009F480E0DF91CF91089580E014
:1001F00090E0FACF1F93CF93DF93282F30E0F901DF
:10020000E255FF4F8491F901E656FF4FD491F90171
:10021000EA57FF4FC491CC23A9F0162F81110E94F9
:10022000A800EC2FF0E0EE0FFF1FEE58FF4FA59156
:10023000B4918FB7F894EC91111108C0D095DE23DA
:10024000DC938FBFDF91CF911F910895DE2BF8CF04
:10025000CF93DF9390E0FC01E656FF4F24918A573D
:100260009F4FFC0184918823D1F090E0880F991F63
:10027000FC01E859FF4FA591B491FC01EE58FF4FE6
:10028000C591D491623071F49FB7F8943C91822F5C
:10029000809583238C93E8812E2B28839FBFDF9149
:1002A000CF9108958FB7F894EC912E2B2C938FBF9C
:1002B000F6CF1F93CF93DF93182FEB0161E00E94DD
:1002C0002801209739F460E0812FDF91CF911F91B1
:1002D0000C94FA00CF3FD10511F461E0F5CFE12F86
:1002E000F0E0E255FF4FE491E33031F140F4E130CA
:1002F000B1F0E230E1F0C038D1057CF7E4CFE7306F
:1003000029F1E83059F1E430B1F780918000806242
:1003100080938000D0938B00C0938A0004C084B582
:10032000806884BDC7BDDF91CF911F91089584B5CA
:10033000806284BDC8BDF7CF8091800080688093C3
:100340008000D0938900C0938800EDCF8091B000E9
:1003500080688093B000C093B300E5CF8091B00077
:1003600080628093B000C093B400DDCF2FB7F894C3
:1003700060915603709157038091580390915903EF
:100380002FBF08950895AF92BF92CF92DF92EF9260
:10039000FF920F931F93CF93DF936C017B018B012F
:1003A000040F151FEB015E01AE18BF08C017D1077F
:1003B00059F06991D601ED91FC910190F081E02D09
:1003C000C6010995892B79F7C501DF91CF911F915E
:1003D0000F91FF90EF90DF90CF90BF90AF90089576
:1003E000FC01538D448D252F30E0842F90E0821B3B
:1003F000930B541710F0CF96089501970895FC01C0
:10040000918D828D981761F0A28DAE0FBF2FB11D17
:100410005D968C91928D9F5F9F73928F90E008956F
:100420008FEF9FEF0895FC01918D828D981731F029
:10043000828DE80FF11D858D90E008958FEF9FEF7D
:100440000895FC01918D228D892F90E0805C9F4F53
:10045000821B91098F73992708958AE593E00E9482
:10046000210221E0892B09F420E0822F089580E009
:1004700090E0892B29F00E942D0281110C9400003C
:100480000895FC01A48DA80FB92FB11DA35ABF4F29
:100490002C91848D90E001968F739927848FA68983
:1004A000B7892C93A089B1898C91837080648C93D7
:1004B000938D848D981306C00288F389E02D808186
:1004C0008F7D80830895EF92FF920F931F93CF93B8
:1004D000DF93EC0181E0888F9B8D8C8D98131AC07F
:1004E000E889F989808185FF15C09FB7F894EE8966
:1004F000FF896083E889F9898081837080648083C3
:100500009FBF81E090E0DF91CF911F910F91FF900D
:10051000EF900895F62E0B8D10E00F5F1F4F0F73B5
:100520001127E02E8C8D8E110CC00FB607FCFACF70
:10053000E889F989808185FFF5CFCE010E944102CB
:10054000F1CFEB8DEC0FFD2FF11DE35AFF4FF08241
:100550009FB7F8940B8FEA89FB8980818062CFCFA7
:10056000CF93DF93EC01888D8823B9F0AA89BB89EA
:10057000E889F9898C9185FD03C0808186FD0DC0D5
:100580000FB607FCF7CF8C9185FFF2CF808185FFF6
:10059000EDCFCE010E944102E9CFDF91CF910895C6
:1005A0000F931F93CF93DF938B01EA01BC0189E086
:1005B0000E945901B80186E00E945901BE0185E000
:1005C000DF91CF911F910F910C945901FC01019083
:1005D0000020E9F73197AF01481B590BBC018AE5B0
:1005E00093E00C94C301CF93DF930E94E602EC01E9
:1005F0008AE892E00E94E6028C0F9D1FDF91CF9166
:1006000008950F931F9380911E01882309F44EC013
:100610000E94B60100910003109101032091020392
:1006200030910303601B710B820B930B6D32714091
:1006300081059105D8F182E00E94D100892BB1F5A6
:100640000E94B6016093000370930103809302033C
:100650009093030380912D0390912E03019663E004
:1006600070E00E94E60890932E0380932D034AE0E9
:10067000489F9001499F300D112420503F4F82E048
:100680002D38380731F482E992E01F910F910C94D4
:10069000F30282E02F39380719F485EA92E0F5CFAA
:1006A000245B324019F489EB92E0EFCF1F910F9158
:1006B00008958F929F92AF92BF92CF92DF92EF9266
:1006C000FF92892B09F456C0809108039091090389
:1006D000019690930903809308038BE892E00E94AF
:1006E000F30266ED72E083E393E00E941409109236
:1006F0002C0310922B030E942B0880904C039090A7
:100700004D03A0904E03B0904F032DE0C22ED12C8C
:10071000E12CF12CA70196010E948308680D791D38
:100720008A1D9B1DA70196010E94B50829E1269FFD
:10073000A001279F500D1124BA01615E7E4F82E116
:1007400093E00E94140982E193E00E94F3020E9468
:10075000B60160932F03709330038093310390931D
:100760003203FF90EF90DF90CF90BF90AF909F90BB
:100770008F90089586EC92E0B2CF8F929F92AF92C5
:10078000BF92CF92DF92EF92FF92CF93DF93CDB7DC
:10079000DEB7A1970FB6F894DEBF0FBECDBF88EDD0
:1007A00092E00E94F302C0900803D09009030D2C40
:1007B000000CEE08FF08F7FE4BC06DE28AE593E0FF
:1007C0000E94630222273327A9012C193D094E09F3
:1007D0005F0919A2CE0181967C019AE0892E912CA5
:1007E000A12CB12CCA01B901A50194010E94B50840
:1007F000605DF70162937F012115310541055105C7
:1008000089F7E114F10419F0C7010E94E6028AE8B1
:1008100092E00E94E6028BE892E00E94F3024FEF22
:1008200050E06FEF70E08FEF90E00E94D002A19651
:100830000FB6F894DEBF0FBECDBFDF91CF91FF9012
:10084000EF90DF90CF90BF90AF909F908F900895E2
:10085000A701960119A2CE0181967C018AE0882E1B
:10086000912CA12CB12CCA01B901A50194010E94BF
:10087000B508605DF70162937F01211531054105DF
:10088000510589F7BECF0F931F930E94B6010091C7
:100890000403109105032091060330910703601BA8
:1008A000710B820B930B6D32714081059105C0F184
:1008B00083E00E94D100892B99F50E94B6016093D4
:1008C00004037093050380930603909307039091AC
:1008D0001E0121E0922790931E01809150038227F0
:1008E000809350038823F9F00E94B60160934C0373
:1008F00070934D0380934E0390934F03109209031E
:10090000109208030E94B60160930E0370930F03C8
:10091000809310039093110310920B0310920A031B
:100920001F910F9108951F910F910C94BD031F9279
:100930000F920FB60F9211242F933F938F939F9393
:10094000AF93BF938091560390915703A0915803A2
:10095000B09159033091550323E0230F2D3758F5FB
:100960000196A11DB11D20935503809356039093CA
:100970005703A0935803B09359038091510390916A
:100980005203A0915303B09154030196A11DB11DD0
:100990008093510390935203A0935303B093540355
:1009A000BF91AF919F918F913F912F910F900FBE6B
:1009B0000F901F90189526E8230F0296A11DB11DD8
:1009C000D2CF1F920F920FB60F9211242F933F9305
:1009D0004F935F936F937F938F939F93AF93BF9347
:1009E000EF93FF93E0916602F09167020995FF9102
:1009F000EF91BF91AF919F918F917F916F915F9197
:100A00004F913F912F910F900FBE0F901F9018950F
:100A10001F920F920FB60F9211242F933F934F9373
:100A20005F936F937F938F939F93AF93BF93EF9356
:100A3000FF93E0916402F09165020995FF91EF91B7
:100A4000BF91AF919F918F917F916F915F914F91E6
:100A50003F912F910F900FBE0F901F9018951F92EE
:100A60000F920FB60F9211242F933F934F935F93E2
:100A70006F937F938F939F93AF93BF93EF93FF9366
:100A80008AE593E00E944102FF91EF91BF91AF91FF
:100A90009F918F917F916F915F914F913F912F9196
:100AA0000F900FBE0F901F9018951F920F920FB6C8
:100AB0000F9211242F938F939F93EF93FF93E091C5
:100AC0006A03F0916B038081E0917003F0917103F0
:100AD00082FD1BC09081809173038F5F8F73209183
:100AE0007403821741F0E0917303F0E0E65AFC4F83
:100AF000958F80937303FF91EF919F918F912F9129
:100B00000F900FBE0F901F9018958081F4CF7894AE
:100B100084B5826084BD84B5816084BD85B5826002
:100B200085BD85B5816085BD80916E0081608093B3
:100B30006E0010928100809181008260809381001C
:100B4000809181008160809381008091800081602C
:100B5000809380008091B10084608093B100809187
:100B6000B00081608093B00080917A0084608093AF
:100B70007A0080917A00826080937A0080917A0076
:100B8000816080937A0080917A00806880937A00F7
:100B90001092C100E0916A03F0916B0382E08083C0
:100BA000E0916603F09167031082E0916803F09191
:100BB000690384E4808310927203E0916E03F091E4
:100BC0006F0386E08083E0916C03F0916D03808178
:100BD00080618083E0916C03F0916D038081886077
:100BE0008083E0916C03F0916D0380818068808345
:100BF000E0916C03F0916D0380818F7D808361E0D3
:100C000089E00E94280161E086E00E94280161E0FD
:100C100085E00E9428014FEF50E06FEF70E08FEF0A
:100C200090E00E94D00262E083E00E94280162E02E
:100C300082E00E94280163E474E081E00E948C005D
:100C400061E073E080E00E948C0089EE92E00E94F7
:100C5000F30242E1642E43E0742E5AE0C52ED12CFB
:100C6000E12CF12C02E010E060E0A62E60E0B62E50
:100C70009924939480915003882309F4DDC00E9445
:100C8000B60120914C0330914D0340914E03509199
:100C90004F03621B730B840B950B693E70488105F3
:100CA000910558F090921E01109250030E94BD03CE
:100CB00080915003882309F4BFC00E94B60120919F
:100CC0004C0330914D0340914E0350914F03621BF2
:100CD000730B840B950B6B3E7B408105910508F0EF
:100CE000B7C00E94B60120910E0330910F034091CE
:100CF000100350911103621B730B840B950B653F1E
:100D000071408105910508F444C080900A03509019
:100D10000B030E94B60160930E0370930F03809340
:100D2000100390931103C0910C03D0910D03FFEFBA
:100D3000FC9FC001FD9F900D1124AC01BC010E94DD
:100D4000D002CE010196B8010E94E60890930D03EF
:100D500080930C0380FC14C0682D752D77FF02C0B2
:100D60006F5F7F4F759567957195619571096D5CA2
:100D70008AE593E00E9463028AE892E00E94E6021C
:100D800080910A0390910B03019690930B0380933B
:100D90000A0380910A0390910B03069709F04CC057
:100DA00010922C0310922B036CE872E083E393E023
:100DB0000E9414090E942B0820904C0330904D0390
:100DC00040904E0350904F03A70196010E94830864
:100DD000620D731D841D951DA70196010E94B50823
:100DE00049E1469F9001479F300D1124B901615E92
:100DF0007E4F82E193E00E94140982E193E00E9419
:100E0000F3020E94B60160932F0370933003809326
:100E100031039093320350E040E06FEF70E090E0D8
:100E200080E00E94D00280910A0390910B0301960A
:100E300090930B0380930A03A114B10409F41ACF11
:100E40000E942D02882309F413CF0E94000010CFC6
:100E50008AE593E00E942102892B09F453C08AE5B8
:100E600093E00E94FF0120912B0330912C038830E6
:100E700061F51216130654F421503109F901ED5CA5
:100E8000FC4F108230932C0320932B03E3E3F3E019
:100E900001900020E9F7CF0184539340A2E1B3E031
:100EA000E3E3F3E09F012353334028173907E4F4C9
:100EB00031912D913217B1F350E040E070E060E0E5
:100EC0008FEF90E00E94D0021DC0F901ED5CFC4F55
:100ED00080832F5F3F4F30932C0320932B032D5C97
:100EE0003C4FF9011082D2CFF30101900020E9F7C5
:100EF0009F01235133408217930769F581E090E009
:100F00000E9459030E94B60120912F0330913003B3
:100F10004091310350913203DC01CB01821B930BD2
:100F2000A40BB50BE0912D03F0912E03EE0FFF1FE4
:100F3000EE0FFF1FE258FD4F208131814281538126
:100F4000281739074A075B0708F076CF90E080E062
:100F50000E94590371CF50E040E06FEF70E090E0E5
:100F600080E0B0CFEAE5F3E01382128288EE93E0EE
:100F7000A0E0B0E084839583A683B78380E792E006
:100F80009183808385EC90E09587848784EC90E062
:100F90009787868780EC90E0918B808B81EC90E046
:100FA000938B828B82EC90E0958B848B86EC90E027
:100FB000978B868B118E128E138E148E08958F92BE
:100FC0009F92AF92BF92CF92DF92EF92FF92CF9318
:100FD000DF93EC01688179818A819B8161157105BC
:100FE0008105910521F464E279ED8BE597E02DE12F
:100FF00033EF41E050E00E94830849015A019B0110
:10100000AC01A7EAB1E40E94A2086B017C01ACEE3E
:10101000B4EFA50194010E94B008C60ED71EE81EC9
:10102000F91EF7FE06C081E0C81AD108E10880E881
:10103000F80AC882D982EA82FB82C701B6019F778B
:10104000DF91CF91FF90EF90DF90CF90BF90AF9066
:101050009F908F9008958F929F92AF92BF92CF9260
:10106000DF92EF92FF926091680270916902809125
:101070006A0290916B02611571058105910521F459
:1010800064E279ED8BE597E02DE133EF41E050E04C
:101090000E94830849015A019B01AC01A7EAB1E40F
:1010A0000E94A2086B017C01ACEEB4EFA501940193
:1010B0000E94B008C60ED71EE81EF91EF7FE06C035
:1010C00081E0C81AD108E10880E8F80AC0926802F5
:1010D000D0926902E0926A02F0926B02C701B601F7
:1010E0009F77FF90EF90DF90CF90BF90AF909F9051
:1010F0008F900895609368027093690280936A02EA
:1011000090936B020895052E97FB1EF400940E94A5
:101110009A0857FD07D00E94B50807FC03D04EF48B
:101120000C949A0850954095309521953F4F4F4F1C
:101130005F4F089590958095709561957F4F8F4F83
:101140009F4F08950E94D708A59F900DB49F900DC2
:10115000A49F800D911D11240895B7FF0C94A2083F
:101160000E94A208821B930B0895A1E21A2EAA1BCB
:10117000BB1BFD010DC0AA1FBB1FEE1FFF1FA21747
:10118000B307E407F50720F0A21BB30BE40BF50B44
:10119000661F771F881F991F1A9469F760957095CD
:1011A000809590959B01AC01BD01CF010895A29F50
:1011B000B001B39FC001A39F700D811D1124911D2B
:1011C000B29F700D811D1124911D089597FB072E6C
:1011D00016F4009407D077FD09D00E94FA0807FCA6
:1011E00005D03EF4909581959F4F08957095619537
:1011F0007F4F0895AA1BBB1B51E107C0AA1FBB1F4D
:10120000A617B70710F0A61BB70B881F991F5A9592
:10121000A9F780959095BC01CD010895EE0FFF1FB1
:101220000590F491E02D0994FB01DC0101900D92F1
:0A1230000020E1F70895F894FFCFC5
:10123A000A55736F720A000000000A4D65646975E9
:10124A000A0000000A477265750A00000000017270
:10125A006F626F74696361000000000000000000A3
:10126A000000000000000000756E6F000000000022
:10127A000000000000000000000000000000000064
:10128A0000726F626F74000000000000000000002E
:10129A0000000000000000000000756E75000000EC
:1012AA000000000000000000000000000000000034
:1012BA000000006361696E65000000000000000024
:1012CA00000000000000000000000000656C656678
:1012DA00616E7400000000000000000000000000C1
:1012EA0000000000006D616D610000000000000058
:1012FA000000000000000000000000000000636120
:10130A006E74656300000000000000000000000029
:10131A0000000000000000617269706100000000B6
:10132A0000000000000000000000000000000000B3
:10133A00636172706100000000000000000000009C
:10134A0000000000000000000063617361000000FB
:10135A000000000000000000000000000000000083
:10136A0000006D61736100000000000000000000D1
:10137A00000000000000000000000070617075733A
:10138A0061000000000000000000000000000000F2
:10139A0000000000C201C2010100000000000000BC
:1013AA006302C301F001B0022102FF011302B41467
:1013BA00000004100000F00A00000D0A0055736FC7
:1013CA00720045617379206D6F6465204F4E004D40
:1013DA0065646975004D656469756D206D6F646536
:1013EA00204F4E00477265750048617264206D6F28
:1013FA006465204F4E000A54696D702065787069E3
:10140A00726174210A0020000A5465726D696E6166
:10141A0074210A53636F723A000A507574657469CD
:10142A0020696E63657065206A6F63756C210A00B6
:00000001FF
